:1000000012C024C023C022C021C020C01FC01EC0F7
:100010001DC01CC01BC01AC019C018C017C016C014
:1000200015C014C013C011241FBECFE5D4E0DEBF3D
:10003000CDBF12E0A0E6B0E0E4E8F5E002C0059034
:100040000D92AA3AB107D9F793D29AC2D9CFA89AFA
:1000500085E08A95F1F70000A89885E08A95F1F788
:10006000000008958C988D988E988F98A99AAA98D8
:1000700085E08A95F1F70000A89A85E08A95F1F766
:1000800000008799FECFA8980895CF93C82F6130BC
:1000900009F4E8DF8C9A8D9A8E9A8F9AA998AA987B
:1000A000A89AC4FF02C0949A01C09498C5FF02C0E8
:1000B000959A01C09598C6FF02C0969A01C096987D
:1000C000C7FF02C0979A01C0979882E48A95F1F71A
:1000D00000C0BDDFC0FF02C0949A01C09498C1FF68
:1000E00002C0959A01C09598C2FF02C0969A01C0BD
:1000F0009698C3FF02C0979A01C0979882E48A95A8
:10010000F1F700C0CF91A3CFA09AA19AA29A8C9A9E
:100110008D9A8E9A8F9A8FE295E70197F1F700C03A
:10012000000060E080E3B1DF87E090E20197F1F743
:1001300000C0000060E080E3A8DF87EC90E001975A
:10014000F1F700C0000060E080E39FDF87E090E20D
:100150000197F1F700C0000060E088E296DF9AE6C0
:100160009A95F1F700C061E088E28FDF8AE68A9510
:10017000F1F700C061E088E088DF9AE69A95F1F730
:1001800000C061E08FE081DF8AE68A95F1F700C068
:1001900061E086E07ADF9AE69A95F1F700C061E0C7
:1001A00081E073DF8AE68A95F1F700C00895CF9366
:1001B000C82F58DF8C9A8D9A8E9A8F9AA998AA9AEE
:1001C000A89AC4FF02C0949A01C09498C5FF02C0C7
:1001D000959A01C09598C6FF02C0969A01C096985C
:1001E000C7FF02C0979A01C0979831DFC0FF02C0D5
:1001F000949A01C09498C1FF02C0959A01C0959845
:10020000C2FF02C0969A01C09698C3FF02C0979A97
:1002100001C09798CF911BCF25DF8C988D988E9831
:100220008F98A99AAA9AA89885E08A95F1F7000074
:10023000A89A95E09A95F1F70000849B02C080E1AE
:1002400001C080E08599806286998064879B02C0A6
:10025000806801C08F77A89895E09A95F1F7000023
:10026000A89A95E09A95F1F70000849B02C08160FE
:1002700001C08E7F859B02C0826001C08D7F869BFE
:1002800002C0846001C08B7F879B02C08860089594
:10029000877F0895E7DE8C988D988E988F98A99A1D
:1002A000AA9885E08A95F1F70000A89A95E09A95BA
:1002B000F1F7000080B382958170859982608699FC
:1002C000846087998860A89895E09A95F1F7000076
:1002D000A89A95E09A95F1F7000084998061859934
:1002E000806286998064879B02C0806808958F77BA
:1002F0000895B8DE8C988D988E988F98A99AAA9AAE
:1003000085E08A95F1F70000A89A95E09A95F1F7B3
:10031000000080B38295817085998260869984609F
:1003200087998860A89895E09A95F1F70000A89AB7
:1003300095E09A95F1F70000849980618599806233
:1003400086998064879B02C0806808958F7708959E
:10035000CF93DF93EC0101C02ADF89918111FCCF9B
:10036000DF91CF91089561E080688FCE61E082E0F7
:100370008CCE8F7361E0806488CE8F7118CF80E05F
:10038000F8DF80E014DF8AE012DF80E010DF84E035
:100390000EDF81E10CDF8EE00ADF80E008DF80E025
:1003A00006DF88E0E6DF80E002DF8DE100DF85E048
:1003B000FEDE8FE1FCDE84E1FADE87E1F8DE80E03C
:1003C000F6DE80E0F4DE80E1D4DF84E0F0DE84E07D
:1003D000EEDE8FE1ECDE84E0EADE8EE0E8DE8EE049
:1003E000E6DE84E0E4DE80E0E2DE88E1C2DF80E099
:1003F000DEDE81E1DCDE8AE0DADE80E0D8DE8FE17D
:10040000D6DE81E1D4DE8EE0D2DE80E0D0DE80E296
:10041000B0DF84E0CCDE8EE0CADE85E1C8DE84E0B9
:10042000C6DE84E0C4DE84E0C2DE84E0C0DE80E0BC
:10043000BEDE88E29EDF84E0BADE84E0B8DE84E0DF
:10044000B6DE84E0B4DE85E1B2DE8EE0B0DE84E0CC
:10045000AEDE80E0ACDE80E38CDF84E0A8DE8FE1FE
:10046000A6DE84E0A4DE8FE1A2DE81E1A0DE81E1F0
:100470009EDE8FE19CDE80E09ADE88E37ADF80E01A
:1004800096DE8AE094DE85E192DE8AE090DE84E00A
:100490008EDE80E08CDE80E08ADE80E088CE8823FD
:1004A00011F0C19A01C0C198862F5EC00F931F93AF
:1004B000CF93DF93805296E0899F80011124005AE8
:1004C0001F4FC0E0D0E0F801EC0FFD1F608181E01C
:1004D000E6DF2196C630D105B1F7DF91CF911F91AC
:1004E0000F910895CF93DF93EC0101C0DFDF899175
:1004F0008111FCCFDF91CF910895CF93C62F682F44
:10050000606880E0CCDF6C2F606480E0CF91C7CF63
:10051000CF93DF936CE080E0C2DF60E880E0BFDF74
:10052000C8EFD1E060E081E0BADF2197D9F7DF9131
:10053000CF910895B99A13D061E280E0B0DF68EC02
:1005400080E0ADDF67E080E0AADF60E180E0A7DF68
:1005500060E280E0A4DF6CE080E0A1DFD9CF8CE234
:1005600087BB83E58DB908958FB9779BFECF08953A
:10057000E1DF88E892E0B6DF60E080E0BEDFFCCF3C
:04058000F894FFCF1D
:100584000000000000000000002F00000000070031
:10059400070000147F147F1400242A7F2A120062AB
:1005A4006408132300364955225000000503000057
:1005B40000001C224100000041221C000014083EDF
:1005C40008140008083E0808000000A060000008A5
:1005D40008080808000060600000002010080402F9
:1005E400003E5149453E0000427F400000426151B7
:1005F4004946002141454B31001814127F10002751
:1006040045454539003C4A49493000017109050313
:1006140000364949493600064949291E0000363644
:1006240000000000563600000008142241000014A7
:100634001414141400004122140800020151090684
:1006440000324959513E007C1211127C007F494905
:100654004936003E41414122007F4141221C007F36
:1006640049494941007F09090901003E4149497A44
:10067400007F0808087F0000417F410000204041BE
:100684003F01007F08142241007F40404040007F2A
:10069400020C027F007F0408107F003E4141413E6E
:1006A400007F09090906003E4151215E007F0919B6
:1006B40029460046494949310001017F0101003FB3
:1006C4004040403F001F2040201F003F4038403F33
:1006D4000063140814630007087008070061514997
:1006E400454300007F41410000552A552A5500002A
:1006F40041417F00000402010204004040404040A8
:10070400000001020400002054545478007F48443F
:10071400443800384444442000384444487F003876
:100724005454541800087E0901020018A4A4A47C9F
:10073400007F080404780000447D40000040808469
:100744007D00007F102844000000417F4000007CB1
:1007540004180478007C08040478003844444438BD
:1007640000FC242424180018242418FC007C080409
:10077400040800485454542000043F444020003CE2
:100784004040207C001C2040201C003C4030403C69
:10079400004428102844001CA0A0A07C00446454F9
:1007A4004C4414141414141468656C6C6F20776F23
:1007B400726C647364667320667364206620736469
:0A07C4002066207364206620730095
:00000001FF
